:100000000C9434000C943E000C943E000C943E0082
:100010000C943E000C943E000C943E000C943E0068
:100020000C943E000C943E000C943E000C943E0058
:100030000C943E000C943E000C943E000C943E0048
:100040000C943E000C943E000C943E000C943E0038
:100050000C943E000C943E000C943E000C943E0028
:100060000C943E000C943E0011241FBECFEFD8E04C
:10007000DEBFCDBF0E9440000C945E000C940000D7
:1000800080E284B915B881E087B918B890E295B9D3
:1000900088B92FEF39E648E1215030404040E1F780
:1000A00000C0000015B818B82FEF39E648E121501C
:1000B00030404040E1F700C00000E9CFF894FFCFA6
:00000001FF
